{
  "contractName": "SYCoin",
  "abi": [
    {
      "inputs": [
        {
          "internalType": "uint256",
          "name": "initialSupply",
          "type": "uint256"
        }
      ],
      "stateMutability": "nonpayable",
      "type": "constructor"
    },
    {
      "anonymous": false,
      "inputs": [
        {
          "indexed": true,
          "internalType": "address",
          "name": "owner",
          "type": "address"
        },
        {
          "indexed": true,
          "internalType": "address",
          "name": "spender",
          "type": "address"
        },
        {
          "indexed": false,
          "internalType": "uint256",
          "name": "value",
          "type": "uint256"
        }
      ],
      "name": "Approval",
      "type": "event"
    },
    {
      "anonymous": false,
      "inputs": [
        {
          "indexed": true,
          "internalType": "address",
          "name": "previousOwner",
          "type": "address"
        },
        {
          "indexed": true,
          "internalType": "address",
          "name": "newOwner",
          "type": "address"
        }
      ],
      "name": "OwnershipTransferred",
      "type": "event"
    },
    {
      "anonymous": false,
      "inputs": [
        {
          "indexed": true,
          "internalType": "address",
          "name": "from",
          "type": "address"
        },
        {
          "indexed": true,
          "internalType": "address",
          "name": "to",
          "type": "address"
        },
        {
          "indexed": false,
          "internalType": "uint256",
          "name": "value",
          "type": "uint256"
        }
      ],
      "name": "Transfer",
      "type": "event"
    },
    {
      "inputs": [],
      "name": "RATE",
      "outputs": [
        {
          "internalType": "uint256",
          "name": "",
          "type": "uint256"
        }
      ],
      "stateMutability": "view",
      "type": "function",
      "constant": true
    },
    {
      "inputs": [
        {
          "internalType": "address",
          "name": "owner",
          "type": "address"
        },
        {
          "internalType": "address",
          "name": "spender",
          "type": "address"
        }
      ],
      "name": "allowance",
      "outputs": [
        {
          "internalType": "uint256",
          "name": "",
          "type": "uint256"
        }
      ],
      "stateMutability": "view",
      "type": "function",
      "constant": true
    },
    {
      "inputs": [
        {
          "internalType": "address",
          "name": "spender",
          "type": "address"
        },
        {
          "internalType": "uint256",
          "name": "amount",
          "type": "uint256"
        }
      ],
      "name": "approve",
      "outputs": [
        {
          "internalType": "bool",
          "name": "",
          "type": "bool"
        }
      ],
      "stateMutability": "nonpayable",
      "type": "function"
    },
    {
      "inputs": [
        {
          "internalType": "address",
          "name": "account",
          "type": "address"
        }
      ],
      "name": "balanceOf",
      "outputs": [
        {
          "internalType": "uint256",
          "name": "",
          "type": "uint256"
        }
      ],
      "stateMutability": "view",
      "type": "function",
      "constant": true
    },
    {
      "inputs": [],
      "name": "decimals",
      "outputs": [
        {
          "internalType": "uint8",
          "name": "",
          "type": "uint8"
        }
      ],
      "stateMutability": "view",
      "type": "function",
      "constant": true
    },
    {
      "inputs": [
        {
          "internalType": "address",
          "name": "spender",
          "type": "address"
        },
        {
          "internalType": "uint256",
          "name": "subtractedValue",
          "type": "uint256"
        }
      ],
      "name": "decreaseAllowance",
      "outputs": [
        {
          "internalType": "bool",
          "name": "",
          "type": "bool"
        }
      ],
      "stateMutability": "nonpayable",
      "type": "function"
    },
    {
      "inputs": [
        {
          "internalType": "address",
          "name": "spender",
          "type": "address"
        },
        {
          "internalType": "uint256",
          "name": "addedValue",
          "type": "uint256"
        }
      ],
      "name": "increaseAllowance",
      "outputs": [
        {
          "internalType": "bool",
          "name": "",
          "type": "bool"
        }
      ],
      "stateMutability": "nonpayable",
      "type": "function"
    },
    {
      "inputs": [],
      "name": "name",
      "outputs": [
        {
          "internalType": "string",
          "name": "",
          "type": "string"
        }
      ],
      "stateMutability": "view",
      "type": "function",
      "constant": true
    },
    {
      "inputs": [],
      "name": "owner",
      "outputs": [
        {
          "internalType": "address",
          "name": "",
          "type": "address"
        }
      ],
      "stateMutability": "view",
      "type": "function",
      "constant": true
    },
    {
      "inputs": [],
      "name": "renounceOwnership",
      "outputs": [],
      "stateMutability": "nonpayable",
      "type": "function"
    },
    {
      "inputs": [],
      "name": "symbol",
      "outputs": [
        {
          "internalType": "string",
          "name": "",
          "type": "string"
        }
      ],
      "stateMutability": "view",
      "type": "function",
      "constant": true
    },
    {
      "inputs": [],
      "name": "totalSupply",
      "outputs": [
        {
          "internalType": "uint256",
          "name": "",
          "type": "uint256"
        }
      ],
      "stateMutability": "view",
      "type": "function",
      "constant": true
    },
    {
      "inputs": [
        {
          "internalType": "address",
          "name": "to",
          "type": "address"
        },
        {
          "internalType": "uint256",
          "name": "amount",
          "type": "uint256"
        }
      ],
      "name": "transfer",
      "outputs": [
        {
          "internalType": "bool",
          "name": "",
          "type": "bool"
        }
      ],
      "stateMutability": "nonpayable",
      "type": "function"
    },
    {
      "inputs": [
        {
          "internalType": "address",
          "name": "from",
          "type": "address"
        },
        {
          "internalType": "address",
          "name": "to",
          "type": "address"
        },
        {
          "internalType": "uint256",
          "name": "amount",
          "type": "uint256"
        }
      ],
      "name": "transferFrom",
      "outputs": [
        {
          "internalType": "bool",
          "name": "",
          "type": "bool"
        }
      ],
      "stateMutability": "nonpayable",
      "type": "function"
    },
    {
      "inputs": [
        {
          "internalType": "address",
          "name": "newOwner",
          "type": "address"
        }
      ],
      "name": "transferOwnership",
      "outputs": [],
      "stateMutability": "nonpayable",
      "type": "function"
    },
    {
      "stateMutability": "payable",
      "type": "receive",
      "payable": true
    },
    {
      "inputs": [],
      "name": "buySYC",
      "outputs": [],
      "stateMutability": "payable",
      "type": "function",
      "payable": true
    },
    {
      "inputs": [
        {
          "internalType": "uint256",
          "name": "sycAmount",
          "type": "uint256"
        }
      ],
      "name": "sellSYC",
      "outputs": [],
      "stateMutability": "nonpayable",
      "type": "function"
    },
    {
      "inputs": [],
      "name": "withdrawETH",
      "outputs": [],
      "stateMutability": "nonpayable",
      "type": "function"
    }
  ],
  "bytecode": "0x60806040523480156200001157600080fd5b50604051620014ec380380620014ec8339810160408190526200003491620002cb565b6040518060400160405280600781526020016629ac9021b7b4b760c91b8152506040518060400160405280600381526020016253594360e81b81525081600390805190602001906200008892919062000225565b5080516200009e90600490602084019062000225565b505050620000bb620000b5620000e760201b60201c565b620000eb565b620000e033620000ce6012600a620003fa565b620000da908462000412565b6200013d565b506200048b565b3390565b600580546001600160a01b038381166001600160a01b0319831681179093556040519116919082907f8be0079c531659141344cd1fd0a4f28419497f9722a3daafe3b4186f6b6457e090600090a35050565b6001600160a01b038216620001985760405162461bcd60e51b815260206004820152601f60248201527f45524332303a206d696e7420746f20746865207a65726f206164647265737300604482015260640160405180910390fd5b8060026000828254620001ac919062000434565b90915550506001600160a01b03821660009081526020819052604081208054839290620001db90849062000434565b90915550506040518181526001600160a01b038316906000907fddf252ad1be2c89b69c2b068fc378daa952ba7f163c4a11628f55a4df523b3ef9060200160405180910390a35050565b82805462000233906200044f565b90600052602060002090601f016020900481019282620002575760008555620002a2565b82601f106200027257805160ff1916838001178555620002a2565b82800160010185558215620002a2579182015b82811115620002a257825182559160200191906001019062000285565b50620002b0929150620002b4565b5090565b5b80821115620002b05760008155600101620002b5565b600060208284031215620002de57600080fd5b5051919050565b634e487b7160e01b600052601160045260246000fd5b600181815b808511156200033c578160001904821115620003205762000320620002e5565b808516156200032e57918102915b93841c939080029062000300565b509250929050565b6000826200035557506001620003f4565b816200036457506000620003f4565b81600181146200037d57600281146200038857620003a8565b6001915050620003f4565b60ff8411156200039c576200039c620002e5565b50506001821b620003f4565b5060208310610133831016604e8410600b8410161715620003cd575081810a620003f4565b620003d98383620002fb565b8060001904821115620003f057620003f0620002e5565b0290505b92915050565b60006200040b60ff84168362000344565b9392505050565b60008160001904831182151516156200042f576200042f620002e5565b500290565b600082198211156200044a576200044a620002e5565b500190565b600181811c908216806200046457607f821691505b6020821081036200048557634e487b7160e01b600052602260045260246000fd5b50919050565b611051806200049b6000396000f3fe60806040526004361061010d5760003560e01c8063715018a611610095578063a457c2d711610064578063a457c2d714610325578063a9059cbb14610345578063dd62ed3e14610365578063e086e5ec146103ab578063f2fde38b146103c057600080fd5b8063715018a6146102cb5780638da5cb5b146102e057806395d89b411461030857806398e1b0f41461031d57600080fd5b806323b872dd116100dc57806323b872dd1461021d578063313ce5671461023d5780633950935114610259578063664e97041461027957806370a082311461029557600080fd5b806306fdde0314610183578063095ea7b3146101ae57806318160ddd146101de5780632110eba8146101fd57600080fd5b3661017e576000341161015c5760405162461bcd60e51b8152602060048201526012602482015271090c2e4eae640dacadcced2e4d2da408aa8960731b60448201526064015b60405180910390fd5b6000610170670de0b6b3a764000034610df7565b905061017c33826103e0565b005b600080fd5b34801561018f57600080fd5b506101986104bf565b6040516101a59190610e19565b60405180910390f35b3480156101ba57600080fd5b506101ce6101c9366004610e8a565b610551565b60405190151581526020016101a5565b3480156101ea57600080fd5b506002545b6040519081526020016101a5565b34801561020957600080fd5b5061017c610218366004610eb4565b610569565b34801561022957600080fd5b506101ce610238366004610ecd565b610612565b34801561024957600080fd5b50604051601281526020016101a5565b34801561026557600080fd5b506101ce610274366004610e8a565b610636565b34801561028557600080fd5b506101ef670de0b6b3a764000081565b3480156102a157600080fd5b506101ef6102b0366004610f09565b6001600160a01b031660009081526020819052604090205490565b3480156102d757600080fd5b5061017c610675565b3480156102ec57600080fd5b506005546040516001600160a01b0390911681526020016101a5565b34801561031457600080fd5b506101986106ab565b61017c6106ba565b34801561033157600080fd5b506101ce610340366004610e8a565b610722565b34801561035157600080fd5b506101ce610360366004610e8a565b6107b4565b34801561037157600080fd5b506101ef610380366004610f2b565b6001600160a01b03918216600090815260016020908152604080832093909416825291909152205490565b3480156103b757600080fd5b5061017c6107c2565b3480156103cc57600080fd5b5061017c6103db366004610f09565b610825565b6001600160a01b0382166104365760405162461bcd60e51b815260206004820152601f60248201527f45524332303a206d696e7420746f20746865207a65726f2061646472657373006044820152606401610153565b80600260008282546104489190610f5e565b90915550506001600160a01b03821660009081526020819052604081208054839290610475908490610f5e565b90915550506040518181526001600160a01b038316906000907fddf252ad1be2c89b69c2b068fc378daa952ba7f163c4a11628f55a4df523b3ef9060200160405180910390a35050565b6060600380546104ce90610f76565b80601f01602080910402602001604051908101604052809291908181526020018280546104fa90610f76565b80156105475780601f1061051c57610100808354040283529160200191610547565b820191906000526020600020905b81548152906001019060200180831161052a57829003601f168201915b5050505050905090565b60003361055f8185856108bd565b5060019392505050565b336000908152602081905260409020548111156105c05760405162461bcd60e51b8152602060048201526015602482015274053616c646f2053594320746964616b2063756b757605c1b6044820152606401610153565b60006105d4670de0b6b3a764000083610fb0565b90506105e033836109e1565b604051339082156108fc029083906000818181858888f1935050505015801561060d573d6000803e3d6000fd5b505050565b600033610620858285610b2f565b61062b858585610bc1565b506001949350505050565b3360008181526001602090815260408083206001600160a01b038716845290915281205490919061055f9082908690610670908790610f5e565b6108bd565b6005546001600160a01b0316331461069f5760405162461bcd60e51b815260040161015390610fcf565b6106a96000610d8f565b565b6060600480546104ce90610f76565b600034116106ff5760405162461bcd60e51b8152602060048201526012602482015271090c2e4eae640dacadcced2e4d2da408aa8960731b6044820152606401610153565b6000610713670de0b6b3a764000034610df7565b905061071f33826103e0565b50565b3360008181526001602090815260408083206001600160a01b0387168452909152812054909190838110156107a75760405162461bcd60e51b815260206004820152602560248201527f45524332303a2064656372656173656420616c6c6f77616e63652062656c6f77604482015264207a65726f60d81b6064820152608401610153565b61062b82868684036108bd565b60003361055f818585610bc1565b6005546001600160a01b031633146107ec5760405162461bcd60e51b815260040161015390610fcf565b6005546040516001600160a01b03909116904780156108fc02916000818181858888f1935050505015801561071f573d6000803e3d6000fd5b6005546001600160a01b0316331461084f5760405162461bcd60e51b815260040161015390610fcf565b6001600160a01b0381166108b45760405162461bcd60e51b815260206004820152602660248201527f4f776e61626c653a206e6577206f776e657220697320746865207a65726f206160448201526564647265737360d01b6064820152608401610153565b61071f81610d8f565b6001600160a01b03831661091f5760405162461bcd60e51b8152602060048201526024808201527f45524332303a20617070726f76652066726f6d20746865207a65726f206164646044820152637265737360e01b6064820152608401610153565b6001600160a01b0382166109805760405162461bcd60e51b815260206004820152602260248201527f45524332303a20617070726f766520746f20746865207a65726f206164647265604482015261737360f01b6064820152608401610153565b6001600160a01b0383811660008181526001602090815260408083209487168084529482529182902085905590518481527f8c5be1e5ebec7d5bd14f71427d1e84f3dd0314c0f7b2291e5b200ac8c7c3b925910160405180910390a3505050565b6001600160a01b038216610a415760405162461bcd60e51b815260206004820152602160248201527f45524332303a206275726e2066726f6d20746865207a65726f206164647265736044820152607360f81b6064820152608401610153565b6001600160a01b03821660009081526020819052604090205481811015610ab55760405162461bcd60e51b815260206004820152602260248201527f45524332303a206275726e20616d6f756e7420657863656564732062616c616e604482015261636560f01b6064820152608401610153565b6001600160a01b0383166000908152602081905260408120838303905560028054849290610ae4908490611004565b90915550506040518281526000906001600160a01b038516907fddf252ad1be2c89b69c2b068fc378daa952ba7f163c4a11628f55a4df523b3ef9060200160405180910390a3505050565b6001600160a01b038381166000908152600160209081526040808320938616835292905220546000198114610bbb5781811015610bae5760405162461bcd60e51b815260206004820152601d60248201527f45524332303a20696e73756666696369656e7420616c6c6f77616e63650000006044820152606401610153565b610bbb84848484036108bd565b50505050565b6001600160a01b038316610c255760405162461bcd60e51b815260206004820152602560248201527f45524332303a207472616e736665722066726f6d20746865207a65726f206164604482015264647265737360d81b6064820152608401610153565b6001600160a01b038216610c875760405162461bcd60e51b815260206004820152602360248201527f45524332303a207472616e7366657220746f20746865207a65726f206164647260448201526265737360e81b6064820152608401610153565b6001600160a01b03831660009081526020819052604090205481811015610cff5760405162461bcd60e51b815260206004820152602660248201527f45524332303a207472616e7366657220616d6f756e7420657863656564732062604482015265616c616e636560d01b6064820152608401610153565b6001600160a01b03808516600090815260208190526040808220858503905591851681529081208054849290610d36908490610f5e565b92505081905550826001600160a01b0316846001600160a01b03167fddf252ad1be2c89b69c2b068fc378daa952ba7f163c4a11628f55a4df523b3ef84604051610d8291815260200190565b60405180910390a3610bbb565b600580546001600160a01b038381166001600160a01b0319831681179093556040519116919082907f8be0079c531659141344cd1fd0a4f28419497f9722a3daafe3b4186f6b6457e090600090a35050565b634e487b7160e01b600052601160045260246000fd5b600082610e1457634e487b7160e01b600052601260045260246000fd5b500490565b600060208083528351808285015260005b81811015610e4657858101830151858201604001528201610e2a565b81811115610e58576000604083870101525b50601f01601f1916929092016040019392505050565b80356001600160a01b0381168114610e8557600080fd5b919050565b60008060408385031215610e9d57600080fd5b610ea683610e6e565b946020939093013593505050565b600060208284031215610ec657600080fd5b5035919050565b600080600060608486031215610ee257600080fd5b610eeb84610e6e565b9250610ef960208501610e6e565b9150604084013590509250925092565b600060208284031215610f1b57600080fd5b610f2482610e6e565b9392505050565b60008060408385031215610f3e57600080fd5b610f4783610e6e565b9150610f5560208401610e6e565b90509250929050565b60008219821115610f7157610f71610de1565b500190565b600181811c90821680610f8a57607f821691505b602082108103610faa57634e487b7160e01b600052602260045260246000fd5b50919050565b6000816000190483118215151615610fca57610fca610de1565b500290565b6020808252818101527f4f776e61626c653a2063616c6c6572206973206e6f7420746865206f776e6572604082015260600190565b60008282101561101657611016610de1565b50039056fea2646970667358221220c0c79a23e679dad5c551fe24e11db3f047fa9b4a84e3ec7d49cf2e2b38632a0664736f6c634300080d0033",
  "immutableReferences": {},
  "source": "pragma solidity ^0.8.13;\r\n\r\nimport \"@openzeppelin/contracts/token/ERC20/ERC20.sol\";\r\nimport \"@openzeppelin/contracts/access/Ownable.sol\";\r\n\r\ncontract SYCoin is ERC20, Ownable {\r\n    uint256 public constant RATE = 1 ether; \r\n\r\n    constructor(uint256 initialSupply) ERC20(\"SY Coin\", \"SYC\") {\r\n        _mint(msg.sender, initialSupply * 10 ** decimals());\r\n    }\r\n\r\n    function buySYC() public payable {\r\n        require(msg.value > 0, \"Harus mengirim ETH\");\r\n        uint256 sycAmount = msg.value / RATE; \r\n        _mint(msg.sender, sycAmount);\r\n    }\r\n\r\n    function sellSYC(uint256 sycAmount) public {\r\n        require(balanceOf(msg.sender) >= sycAmount, \"Saldo SYC tidak cukup\");\r\n        uint256 ethAmount = sycAmount * RATE; \r\n        _burn(msg.sender, sycAmount); \r\n        payable(msg.sender).transfer(ethAmount);\r\n    }\r\n\r\n    function withdrawETH() public onlyOwner {\r\n        payable(owner()).transfer(address(this).balance);\r\n    }\r\n\r\n    // Fungsi untuk menerima ETH dan mengonversinya ke SYC\r\n    receive() external payable {\r\n        require(msg.value > 0, \"Harus mengirim ETH\");\r\n        uint256 sycAmount = msg.value / RATE;\r\n        _mint(msg.sender, sycAmount);\r\n    }\r\n}",
  "sourcePath": "C:\\code playground\\blockchain\\Training\\sy-coin-project\\contracts\\SyCoin.sol",
  "compiler": {
    "name": "solc",
    "version": "0.8.13+commit.abaa5c0e.Emscripten.clang"
  },
  "schemaVersion": "3.4.16",
  "updatedAt": "2025-02-10T17:04:10.400Z",
  "networkType": "ethereum",
  "devdoc": {
    "kind": "dev",
    "methods": {
      "allowance(address,address)": {
        "details": "See {IERC20-allowance}."
      },
      "approve(address,uint256)": {
        "details": "See {IERC20-approve}. NOTE: If `amount` is the maximum `uint256`, the allowance is not updated on `transferFrom`. This is semantically equivalent to an infinite approval. Requirements: - `spender` cannot be the zero address."
      },
      "balanceOf(address)": {
        "details": "See {IERC20-balanceOf}."
      },
      "decimals()": {
        "details": "Returns the number of decimals used to get its user representation. For example, if `decimals` equals `2`, a balance of `505` tokens should be displayed to a user as `5.05` (`505 / 10 ** 2`). Tokens usually opt for a value of 18, imitating the relationship between Ether and Wei. This is the value {ERC20} uses, unless this function is overridden; NOTE: This information is only used for _display_ purposes: it in no way affects any of the arithmetic of the contract, including {IERC20-balanceOf} and {IERC20-transfer}."
      },
      "decreaseAllowance(address,uint256)": {
        "details": "Atomically decreases the allowance granted to `spender` by the caller. This is an alternative to {approve} that can be used as a mitigation for problems described in {IERC20-approve}. Emits an {Approval} event indicating the updated allowance. Requirements: - `spender` cannot be the zero address. - `spender` must have allowance for the caller of at least `subtractedValue`."
      },
      "increaseAllowance(address,uint256)": {
        "details": "Atomically increases the allowance granted to `spender` by the caller. This is an alternative to {approve} that can be used as a mitigation for problems described in {IERC20-approve}. Emits an {Approval} event indicating the updated allowance. Requirements: - `spender` cannot be the zero address."
      },
      "name()": {
        "details": "Returns the name of the token."
      },
      "owner()": {
        "details": "Returns the address of the current owner."
      },
      "renounceOwnership()": {
        "details": "Leaves the contract without owner. It will not be possible to call `onlyOwner` functions anymore. Can only be called by the current owner. NOTE: Renouncing ownership will leave the contract without an owner, thereby removing any functionality that is only available to the owner."
      },
      "symbol()": {
        "details": "Returns the symbol of the token, usually a shorter version of the name."
      },
      "totalSupply()": {
        "details": "See {IERC20-totalSupply}."
      },
      "transfer(address,uint256)": {
        "details": "See {IERC20-transfer}. Requirements: - `to` cannot be the zero address. - the caller must have a balance of at least `amount`."
      },
      "transferFrom(address,address,uint256)": {
        "details": "See {IERC20-transferFrom}. Emits an {Approval} event indicating the updated allowance. This is not required by the EIP. See the note at the beginning of {ERC20}. NOTE: Does not update the allowance if the current allowance is the maximum `uint256`. Requirements: - `from` and `to` cannot be the zero address. - `from` must have a balance of at least `amount`. - the caller must have allowance for ``from``'s tokens of at least `amount`."
      },
      "transferOwnership(address)": {
        "details": "Transfers ownership of the contract to a new account (`newOwner`). Can only be called by the current owner."
      }
    },
    "version": 1
  },
  "userdoc": {
    "kind": "user",
    "methods": {},
    "version": 1
  }
}